{
  "_format": "hh-sol-artifact-1",
  "contractName": "WavePortal",
  "sourceName": "contracts/WavePortal.sol",
  "abi": [
    {
      "inputs": [],
      "stateMutability": "payable",
      "type": "constructor"
    },
    {
      "anonymous": false,
      "inputs": [
        {
          "indexed": true,
          "internalType": "address",
          "name": "from",
          "type": "address"
        },
        {
          "indexed": false,
          "internalType": "uint256",
          "name": "timestamp",
          "type": "uint256"
        },
        {
          "indexed": false,
          "internalType": "string",
          "name": "message",
          "type": "string"
        }
      ],
      "name": "NewWave",
      "type": "event"
    },
    {
      "inputs": [],
      "name": "getAllWaves",
      "outputs": [
        {
          "components": [
            {
              "internalType": "address",
              "name": "waver",
              "type": "address"
            },
            {
              "internalType": "string",
              "name": "message",
              "type": "string"
            },
            {
              "internalType": "uint256",
              "name": "timestamp",
              "type": "uint256"
            }
          ],
          "internalType": "struct WavePortal.Wave[]",
          "name": "",
          "type": "tuple[]"
        }
      ],
      "stateMutability": "view",
      "type": "function"
    },
    {
      "inputs": [],
      "name": "getTotalWaves",
      "outputs": [
        {
          "internalType": "uint256",
          "name": "",
          "type": "uint256"
        }
      ],
      "stateMutability": "view",
      "type": "function"
    },
    {
      "inputs": [
        {
          "internalType": "address",
          "name": "",
          "type": "address"
        }
      ],
      "name": "lastWavedAt",
      "outputs": [
        {
          "internalType": "uint256",
          "name": "",
          "type": "uint256"
        }
      ],
      "stateMutability": "view",
      "type": "function"
    },
    {
      "inputs": [
        {
          "internalType": "string",
          "name": "_message",
          "type": "string"
        }
      ],
      "name": "wave",
      "outputs": [],
      "stateMutability": "nonpayable",
      "type": "function"
    }
  ],
  "bytecode": "0x60806040526200004f6040518060400160405280601981526020017f57652068617665206265656e20636f6e737472756374656421000000000000008152506200007760201b620005fd1760201c565b606444426200005f9190620001bd565b6200006b919062000227565b6001819055506200034c565b62000117816040516024016200008e9190620002f9565b6040516020818303038152906040527f41304fac000000000000000000000000000000000000000000000000000000007bffffffffffffffffffffffffffffffffffffffffffffffffffffffff19166020820180517bffffffffffffffffffffffffffffffffffffffffffffffffffffffff83818316178352505050506200011a60201b60201c565b50565b62000140816200013b6200014360201b62000696176200016460201b60201c565b60201c565b50565b60006a636f6e736f6c652e6c6f679050600080835160208501845afa505050565b6200017860201b6200077817819050919050565b620001826200031d565b565b6000819050919050565b7f4e487b7100000000000000000000000000000000000000000000000000000000600052601160045260246000fd5b6000620001ca8262000184565b9150620001d78362000184565b9250828201905080821115620001f257620001f16200018e565b5b92915050565b7f4e487b7100000000000000000000000000000000000000000000000000000000600052601260045260246000fd5b6000620002348262000184565b9150620002418362000184565b925082620002545762000253620001f8565b5b828206905092915050565b600081519050919050565b600082825260208201905092915050565b60005b838110156200029b5780820151818401526020810190506200027e565b60008484015250505050565b6000601f19601f8301169050919050565b6000620002c5826200025f565b620002d181856200026a565b9350620002e38185602086016200027b565b620002ee81620002a7565b840191505092915050565b60006020820190508181036000830152620003158184620002b8565b905092915050565b7f4e487b7100000000000000000000000000000000000000000000000000000000600052605160045260246000fd5b611292806200035c6000396000f3fe608060405234801561001057600080fd5b506004361061004c5760003560e01c8063449d46c0146100515780639a2cdc081461006d578063a42a46631461008b578063bd43a908146100bb575b600080fd5b61006b600480360381019061006691906108dc565b6100d9565b005b61007561048b565b604051610082919061093e565b60405180910390f35b6100a560048036038101906100a091906109b7565b610494565b6040516100b2919061093e565b60405180910390f35b6100c36104ac565b6040516100d09190610b93565b60405180910390f35b42601e600360003373ffffffffffffffffffffffffffffffffffffffff1673ffffffffffffffffffffffffffffffffffffffff168152602001908152602001600020546101269190610be4565b10610166576040517f08c379a000000000000000000000000000000000000000000000000000000000815260040161015d90610c9b565b60405180910390fd5b42600360003373ffffffffffffffffffffffffffffffffffffffff1673ffffffffffffffffffffffffffffffffffffffff1681526020019081526020016000208190555060016000808282546101bc9190610be4565b925050819055506102026040518060400160405280600d81526020017f2573206861732077617665642100000000000000000000000000000000000000815250336106b7565b600260405180606001604052803373ffffffffffffffffffffffffffffffffffffffff16815260200183815260200142815250908060018154018082558091505060019003906000526020600020906003020160009091909190915060008201518160000160006101000a81548173ffffffffffffffffffffffffffffffffffffffff021916908373ffffffffffffffffffffffffffffffffffffffff16021790555060208201518160010190816102ba9190610ec7565b50604082015181600201555050606460015442446102d89190610be4565b6102e29190610be4565b6102ec9190610fc8565b6001819055506032600154116104385761033b6040518060400160405280600781526020017f257320776f6e2100000000000000000000000000000000000000000000000000815250336106b7565b6000655af3107a4000905047811115610389576040517f08c379a00000000000000000000000000000000000000000000000000000000081526004016103809061106b565b60405180910390fd5b60003373ffffffffffffffffffffffffffffffffffffffff16826040516103af906110bc565b60006040518083038185875af1925050503d80600081146103ec576040519150601f19603f3d011682016040523d82523d6000602084013e6103f1565b606091505b5050905080610435576040517f08c379a000000000000000000000000000000000000000000000000000000000815260040161042c90611143565b60405180910390fd5b50505b3373ffffffffffffffffffffffffffffffffffffffff167f5f7e16dc676677766a70e9c5628aa6c54ddb8b6e5188e2ae1e1f17f1ffbea716428360405161048092919061119c565b60405180910390a250565b60008054905090565b60036020528060005260406000206000915090505481565b60606002805480602002602001604051908101604052809291908181526020016000905b828210156105f457838290600052602060002090600302016040518060600160405290816000820160009054906101000a900473ffffffffffffffffffffffffffffffffffffffff1673ffffffffffffffffffffffffffffffffffffffff1673ffffffffffffffffffffffffffffffffffffffff16815260200160018201805461055990610cea565b80601f016020809104026020016040519081016040528092919081815260200182805461058590610cea565b80156105d25780601f106105a7576101008083540402835291602001916105d2565b820191906000526020600020905b8154815290600101906020018083116105b557829003601f168201915b50505050508152602001600282015481525050815260200190600101906104d0565b50505050905090565b6106938160405160240161061191906111cc565b6040516020818303038152906040527f41304fac000000000000000000000000000000000000000000000000000000007bffffffffffffffffffffffffffffffffffffffffffffffffffffffff19166020820180517bffffffffffffffffffffffffffffffffffffffffffffffffffffffff8381831617835250505050610753565b50565b60006a636f6e736f6c652e6c6f679050600080835160208501845afa505050565b61074f82826040516024016106cd9291906111fd565b6040516020818303038152906040527f319af333000000000000000000000000000000000000000000000000000000007bffffffffffffffffffffffffffffffffffffffffffffffffffffffff19166020820180517bffffffffffffffffffffffffffffffffffffffffffffffffffffffff8381831617835250505050610753565b5050565b61076a8161076261069661076d565b63ffffffff16565b50565b610778819050919050565b61078061122d565b565b6000604051905090565b600080fd5b600080fd5b600080fd5b600080fd5b6000601f19601f8301169050919050565b7f4e487b7100000000000000000000000000000000000000000000000000000000600052604160045260246000fd5b6107e9826107a0565b810181811067ffffffffffffffff82111715610808576108076107b1565b5b80604052505050565b600061081b610782565b905061082782826107e0565b919050565b600067ffffffffffffffff821115610847576108466107b1565b5b610850826107a0565b9050602081019050919050565b82818337600083830152505050565b600061087f61087a8461082c565b610811565b90508281526020810184848401111561089b5761089a61079b565b5b6108a684828561085d565b509392505050565b600082601f8301126108c3576108c2610796565b5b81356108d384826020860161086c565b91505092915050565b6000602082840312156108f2576108f161078c565b5b600082013567ffffffffffffffff8111156109105761090f610791565b5b61091c848285016108ae565b91505092915050565b6000819050919050565b61093881610925565b82525050565b6000602082019050610953600083018461092f565b92915050565b600073ffffffffffffffffffffffffffffffffffffffff82169050919050565b600061098482610959565b9050919050565b61099481610979565b811461099f57600080fd5b50565b6000813590506109b18161098b565b92915050565b6000602082840312156109cd576109cc61078c565b5b60006109db848285016109a2565b91505092915050565b600081519050919050565b600082825260208201905092915050565b6000819050602082019050919050565b610a1981610979565b82525050565b600081519050919050565b600082825260208201905092915050565b60005b83811015610a59578082015181840152602081019050610a3e565b60008484015250505050565b6000610a7082610a1f565b610a7a8185610a2a565b9350610a8a818560208601610a3b565b610a93816107a0565b840191505092915050565b610aa781610925565b82525050565b6000606083016000830151610ac56000860182610a10565b5060208301518482036020860152610add8282610a65565b9150506040830151610af26040860182610a9e565b508091505092915050565b6000610b098383610aad565b905092915050565b6000602082019050919050565b6000610b29826109e4565b610b3381856109ef565b935083602082028501610b4585610a00565b8060005b85811015610b815784840389528151610b628582610afd565b9450610b6d83610b11565b925060208a01995050600181019050610b49565b50829750879550505050505092915050565b60006020820190508181036000830152610bad8184610b1e565b905092915050565b7f4e487b7100000000000000000000000000000000000000000000000000000000600052601160045260246000fd5b6000610bef82610925565b9150610bfa83610925565b9250828201905080821115610c1257610c11610bb5565b5b92915050565b600082825260208201905092915050565b7f4d7573742077616974203330207365636f6e6473206265666f7265207761766960008201527f6e6720616761696e2e0000000000000000000000000000000000000000000000602082015250565b6000610c85602983610c18565b9150610c9082610c29565b604082019050919050565b60006020820190508181036000830152610cb481610c78565b9050919050565b7f4e487b7100000000000000000000000000000000000000000000000000000000600052602260045260246000fd5b60006002820490506001821680610d0257607f821691505b602082108103610d1557610d14610cbb565b5b50919050565b60008190508160005260206000209050919050565b60006020601f8301049050919050565b600082821b905092915050565b600060088302610d7d7fffffffffffffffffffffffffffffffffffffffffffffffffffffffffffffffff82610d40565b610d878683610d40565b95508019841693508086168417925050509392505050565b6000819050919050565b6000610dc4610dbf610dba84610925565b610d9f565b610925565b9050919050565b6000819050919050565b610dde83610da9565b610df2610dea82610dcb565b848454610d4d565b825550505050565b600090565b610e07610dfa565b610e12818484610dd5565b505050565b5b81811015610e3657610e2b600082610dff565b600181019050610e18565b5050565b601f821115610e7b57610e4c81610d1b565b610e5584610d30565b81016020851015610e64578190505b610e78610e7085610d30565b830182610e17565b50505b505050565b600082821c905092915050565b6000610e9e60001984600802610e80565b1980831691505092915050565b6000610eb78383610e8d565b9150826002028217905092915050565b610ed082610a1f565b67ffffffffffffffff811115610ee957610ee86107b1565b5b610ef38254610cea565b610efe828285610e3a565b600060209050601f831160018114610f315760008415610f1f578287015190505b610f298582610eab565b865550610f91565b601f198416610f3f86610d1b565b60005b82811015610f6757848901518255600182019150602085019450602081019050610f42565b86831015610f845784890151610f80601f891682610e8d565b8355505b6001600288020188555050505b505050505050565b7f4e487b7100000000000000000000000000000000000000000000000000000000600052601260045260246000fd5b6000610fd382610925565b9150610fde83610925565b925082610fee57610fed610f99565b5b828206905092915050565b7f547279696e6720746f207769746864726177206d6f7265206d6f6e657920746860008201527f616e207468657920636f6e7472616374206861732e0000000000000000000000602082015250565b6000611055603583610c18565b915061106082610ff9565b604082019050919050565b6000602082019050818103600083015261108481611048565b9050919050565b600081905092915050565b50565b60006110a660008361108b565b91506110b182611096565b600082019050919050565b60006110c782611099565b9150819050919050565b7f4661696c656420746f207769746864726177206d6f6e65792066726f6d20636f60008201527f6e74726163742e00000000000000000000000000000000000000000000000000602082015250565b600061112d602783610c18565b9150611138826110d1565b604082019050919050565b6000602082019050818103600083015261115c81611120565b9050919050565b600061116e82610a1f565b6111788185610c18565b9350611188818560208601610a3b565b611191816107a0565b840191505092915050565b60006040820190506111b1600083018561092f565b81810360208301526111c38184611163565b90509392505050565b600060208201905081810360008301526111e68184611163565b905092915050565b6111f781610979565b82525050565b600060408201905081810360008301526112178185611163565b905061122660208301846111ee565b9392505050565b7f4e487b7100000000000000000000000000000000000000000000000000000000600052605160045260246000fdfea264697066735822122032a21a20a57af5bd021dc0e73cb830335038d9bb2dc3a30010fecf13ed332a2b64736f6c63430008110033",
  "linkReferences": {},
  "deployedLinkReferences": {}
}